{
  "_format": "hh-sol-artifact-1",
  "contractName": "QuickStarter",
  "sourceName": "contracts/QuickStarter.sol",
  "abi": [
    {
      "anonymous": false,
      "inputs": [
        {
          "indexed": true,
          "internalType": "uint256",
          "name": "id",
          "type": "uint256"
        },
        {
          "indexed": true,
          "internalType": "address",
          "name": "creator",
          "type": "address"
        },
        {
          "indexed": false,
          "internalType": "string",
          "name": "title",
          "type": "string"
        },
        {
          "indexed": false,
          "internalType": "uint256",
          "name": "goal",
          "type": "uint256"
        },
        {
          "indexed": false,
          "internalType": "uint256",
          "name": "deadline",
          "type": "uint256"
        }
      ],
      "name": "CampaignCreated",
      "type": "event"
    },
    {
      "anonymous": false,
      "inputs": [
        {
          "indexed": true,
          "internalType": "uint256",
          "name": "id",
          "type": "uint256"
        },
        {
          "indexed": true,
          "internalType": "address",
          "name": "contributor",
          "type": "address"
        },
        {
          "indexed": false,
          "internalType": "uint256",
          "name": "amount",
          "type": "uint256"
        }
      ],
      "name": "ContributionReceived",
      "type": "event"
    },
    {
      "anonymous": false,
      "inputs": [
        {
          "indexed": true,
          "internalType": "uint256",
          "name": "id",
          "type": "uint256"
        },
        {
          "indexed": true,
          "internalType": "address",
          "name": "creator",
          "type": "address"
        },
        {
          "indexed": false,
          "internalType": "uint256",
          "name": "amount",
          "type": "uint256"
        }
      ],
      "name": "FundsWithdrawn",
      "type": "event"
    },
    {
      "anonymous": false,
      "inputs": [
        {
          "indexed": true,
          "internalType": "uint256",
          "name": "id",
          "type": "uint256"
        },
        {
          "indexed": false,
          "internalType": "uint256",
          "name": "totalPledged",
          "type": "uint256"
        }
      ],
      "name": "GoalReached",
      "type": "event"
    },
    {
      "inputs": [
        {
          "internalType": "uint256",
          "name": "",
          "type": "uint256"
        }
      ],
      "name": "campaigns",
      "outputs": [
        {
          "internalType": "uint256",
          "name": "id",
          "type": "uint256"
        },
        {
          "internalType": "string",
          "name": "title",
          "type": "string"
        },
        {
          "internalType": "address payable",
          "name": "creator",
          "type": "address"
        },
        {
          "internalType": "uint256",
          "name": "goal",
          "type": "uint256"
        },
        {
          "internalType": "uint256",
          "name": "pledged",
          "type": "uint256"
        },
        {
          "internalType": "uint256",
          "name": "deadline",
          "type": "uint256"
        },
        {
          "internalType": "bool",
          "name": "open",
          "type": "bool"
        }
      ],
      "stateMutability": "view",
      "type": "function"
    },
    {
      "inputs": [
        {
          "internalType": "uint256",
          "name": "_campaignId",
          "type": "uint256"
        }
      ],
      "name": "contribute",
      "outputs": [],
      "stateMutability": "payable",
      "type": "function"
    },
    {
      "inputs": [
        {
          "internalType": "uint256",
          "name": "",
          "type": "uint256"
        },
        {
          "internalType": "address",
          "name": "",
          "type": "address"
        }
      ],
      "name": "contributions",
      "outputs": [
        {
          "internalType": "uint256",
          "name": "",
          "type": "uint256"
        }
      ],
      "stateMutability": "view",
      "type": "function"
    },
    {
      "inputs": [
        {
          "internalType": "string",
          "name": "_title",
          "type": "string"
        },
        {
          "internalType": "uint256",
          "name": "_goalInWei",
          "type": "uint256"
        },
        {
          "internalType": "uint256",
          "name": "_deadline",
          "type": "uint256"
        }
      ],
      "name": "createCampaign",
      "outputs": [
        {
          "internalType": "uint256",
          "name": "",
          "type": "uint256"
        }
      ],
      "stateMutability": "nonpayable",
      "type": "function"
    },
    {
      "inputs": [
        {
          "internalType": "uint256",
          "name": "_campaignId",
          "type": "uint256"
        }
      ],
      "name": "getCampaign",
      "outputs": [
        {
          "components": [
            {
              "internalType": "uint256",
              "name": "id",
              "type": "uint256"
            },
            {
              "internalType": "string",
              "name": "title",
              "type": "string"
            },
            {
              "internalType": "address payable",
              "name": "creator",
              "type": "address"
            },
            {
              "internalType": "uint256",
              "name": "goal",
              "type": "uint256"
            },
            {
              "internalType": "uint256",
              "name": "pledged",
              "type": "uint256"
            },
            {
              "internalType": "uint256",
              "name": "deadline",
              "type": "uint256"
            },
            {
              "internalType": "bool",
              "name": "open",
              "type": "bool"
            }
          ],
          "internalType": "struct QuickStarter.Campaign",
          "name": "",
          "type": "tuple"
        }
      ],
      "stateMutability": "view",
      "type": "function"
    },
    {
      "inputs": [],
      "name": "nextCampaignId",
      "outputs": [
        {
          "internalType": "uint256",
          "name": "",
          "type": "uint256"
        }
      ],
      "stateMutability": "view",
      "type": "function"
    },
    {
      "inputs": [
        {
          "internalType": "uint256",
          "name": "_campaignId",
          "type": "uint256"
        }
      ],
      "name": "withdrawFunds",
      "outputs": [],
      "stateMutability": "nonpayable",
      "type": "function"
    }
  ],
  "bytecode": "0x6080604052600160005534801561001557600080fd5b50611ac5806100256000396000f3fe6080604052600436106100705760003560e01c80633d891f591161004e5780633d891f591461011e5780635598f8cc1461015b5780637903a75614610198578063c1cbbca7146101c357610070565b8063141961bc14610075578063155dd5ee146100b85780633020580b146100e1575b600080fd5b34801561008157600080fd5b5061009c60048036038101906100979190610d4c565b6101df565b6040516100af9796959493929190610e74565b60405180910390f35b3480156100c457600080fd5b506100df60048036038101906100da9190610d4c565b6102d6565b005b3480156100ed57600080fd5b5061010860048036038101906101039190610f4f565b6105f9565b6040516101159190610fc3565b60405180910390f35b34801561012a57600080fd5b506101456004803603810190610140919061101c565b610846565b6040516101529190610fc3565b60405180910390f35b34801561016757600080fd5b50610182600480360381019061017d9190610d4c565b61086b565b60405161018f919061116f565b60405180910390f35b3480156101a457600080fd5b506101ad610a1e565b6040516101ba9190610fc3565b60405180910390f35b6101dd60048036038101906101d89190610d4c565b610a24565b005b6001602052806000526040600020600091509050806000015490806001018054610208906111c0565b80601f0160208091040260200160405190810160405280929190818152602001828054610234906111c0565b80156102815780601f1061025657610100808354040283529160200191610281565b820191906000526020600020905b81548152906001019060200180831161026457829003601f168201915b5050505050908060020160009054906101000a900473ffffffffffffffffffffffffffffffffffffffff16908060030154908060040154908060050154908060060160009054906101000a900460ff16905087565b806000600160008381526020019081526020016000206000015403610330576040517f08c379a00000000000000000000000000000000000000000000000000000000081526004016103279061123d565b60405180910390fd5b816001600082815260200190815260200160002060020160009054906101000a900473ffffffffffffffffffffffffffffffffffffffff1673ffffffffffffffffffffffffffffffffffffffff163373ffffffffffffffffffffffffffffffffffffffff16146103d5576040517f08c379a00000000000000000000000000000000000000000000000000000000081526004016103cc906112cf565b60405180910390fd5b6000600160008581526020019081526020016000209050806003015481600401541015610437576040517f08c379a000000000000000000000000000000000000000000000000000000000815260040161042e9061133b565b60405180910390fd5b8060060160009054906101000a900460ff16610488576040517f08c379a000000000000000000000000000000000000000000000000000000000815260040161047f906113a7565b60405180910390fd5b60008160040154905060008260060160006101000a81548160ff02191690831515021790555060008260020160009054906101000a900473ffffffffffffffffffffffffffffffffffffffff1673ffffffffffffffffffffffffffffffffffffffff16826040516104f8906113f8565b60006040518083038185875af1925050503d8060008114610535576040519150601f19603f3d011682016040523d82523d6000602084013e61053a565b606091505b505090508061057e576040517f08c379a000000000000000000000000000000000000000000000000000000000815260040161057590611459565b60405180910390fd5b8260020160009054906101000a900473ffffffffffffffffffffffffffffffffffffffff1673ffffffffffffffffffffffffffffffffffffffff16867ff440aec6b52895984d061d622e6edeba6210f7c3e059be920663140c084560d7846040516105e99190610fc3565b60405180910390a3505050505050565b600080831161063d576040517f08c379a0000000000000000000000000000000000000000000000000000000008152600401610634906114c5565b60405180910390fd5b42821161067f576040517f08c379a000000000000000000000000000000000000000000000000000000000815260040161067690611531565b60405180910390fd5b600080600081548092919061069390611580565b9190505590506040518060e0016040528082815260200187878080601f016020809104026020016040519081016040528093929190818152602001838380828437600081840152601f19601f8201169050808301925050505050505081526020013373ffffffffffffffffffffffffffffffffffffffff16815260200185815260200160008152602001848152602001600115158152506001600083815260200190815260200160002060008201518160000155602082015181600101908161075c91906117a3565b5060408201518160020160006101000a81548173ffffffffffffffffffffffffffffffffffffffff021916908373ffffffffffffffffffffffffffffffffffffffff160217905550606082015181600301556080820151816004015560a0820151816005015560c08201518160060160006101000a81548160ff0219169083151502179055509050503373ffffffffffffffffffffffffffffffffffffffff16817fdc26653af5b99b2da33e2ad69ee6600d9aeccc82b034501db4338309615ca2388888888860405161083294939291906118b1565b60405180910390a380915050949350505050565b6002602052816000526040600020602052806000526040600020600091509150505481565b610873610cb7565b8160006001600083815260200190815260200160002060000154036108cd576040517f08c379a00000000000000000000000000000000000000000000000000000000081526004016108c49061123d565b60405180910390fd5b600160008481526020019081526020016000206040518060e001604052908160008201548152602001600182018054610905906111c0565b80601f0160208091040260200160405190810160405280929190818152602001828054610931906111c0565b801561097e5780601f106109535761010080835404028352916020019161097e565b820191906000526020600020905b81548152906001019060200180831161096157829003601f168201915b505050505081526020016002820160009054906101000a900473ffffffffffffffffffffffffffffffffffffffff1673ffffffffffffffffffffffffffffffffffffffff1673ffffffffffffffffffffffffffffffffffffffff1681526020016003820154815260200160048201548152602001600582015481526020016006820160009054906101000a900460ff161515151581525050915050919050565b60005481565b806000600160008381526020019081526020016000206000015403610a7e576040517f08c379a0000000000000000000000000000000000000000000000000000000008152600401610a759061123d565b60405180910390fd5b816001600082815260200190815260200160002060060160009054906101000a900460ff16610ae2576040517f08c379a0000000000000000000000000000000000000000000000000000000008152600401610ad99061193d565b60405180910390fd5b60016000828152602001908152602001600020600501544210610b3a576040517f08c379a0000000000000000000000000000000000000000000000000000000008152600401610b31906119a9565b60405180910390fd5b60003411610b7d576040517f08c379a0000000000000000000000000000000000000000000000000000000008152600401610b7490611a3b565b60405180910390fd5b600060016000858152602001908152602001600020905034816004016000828254610ba89190611a5b565b92505081905550346002600086815260200190815260200160002060003373ffffffffffffffffffffffffffffffffffffffff1673ffffffffffffffffffffffffffffffffffffffff1681526020019081526020016000206000828254610c0f9190611a5b565b925050819055503373ffffffffffffffffffffffffffffffffffffffff16847f865c884d49c8cecaef108efb20f7d282f26c0f9b0d24dd48e5592d4e02ec658d34604051610c5d9190610fc3565b60405180910390a38060030154816004015410610cb157837f85b3ed4e45559c5f41fb220aa4ac86a440dfc741f219089de694242940aaa09c8260040154604051610ca89190610fc3565b60405180910390a25b50505050565b6040518060e001604052806000815260200160608152602001600073ffffffffffffffffffffffffffffffffffffffff1681526020016000815260200160008152602001600081526020016000151581525090565b600080fd5b600080fd5b6000819050919050565b610d2981610d16565b8114610d3457600080fd5b50565b600081359050610d4681610d20565b92915050565b600060208284031215610d6257610d61610d0c565b5b6000610d7084828501610d37565b91505092915050565b610d8281610d16565b82525050565b600081519050919050565b600082825260208201905092915050565b60005b83811015610dc2578082015181840152602081019050610da7565b60008484015250505050565b6000601f19601f8301169050919050565b6000610dea82610d88565b610df48185610d93565b9350610e04818560208601610da4565b610e0d81610dce565b840191505092915050565b600073ffffffffffffffffffffffffffffffffffffffff82169050919050565b6000610e4382610e18565b9050919050565b610e5381610e38565b82525050565b60008115159050919050565b610e6e81610e59565b82525050565b600060e082019050610e89600083018a610d79565b8181036020830152610e9b8189610ddf565b9050610eaa6040830188610e4a565b610eb76060830187610d79565b610ec46080830186610d79565b610ed160a0830185610d79565b610ede60c0830184610e65565b98975050505050505050565b600080fd5b600080fd5b600080fd5b60008083601f840112610f0f57610f0e610eea565b5b8235905067ffffffffffffffff811115610f2c57610f2b610eef565b5b602083019150836001820283011115610f4857610f47610ef4565b5b9250929050565b60008060008060608587031215610f6957610f68610d0c565b5b600085013567ffffffffffffffff811115610f8757610f86610d11565b5b610f9387828801610ef9565b94509450506020610fa687828801610d37565b9250506040610fb787828801610d37565b91505092959194509250565b6000602082019050610fd86000830184610d79565b92915050565b6000610fe982610e18565b9050919050565b610ff981610fde565b811461100457600080fd5b50565b60008135905061101681610ff0565b92915050565b6000806040838503121561103357611032610d0c565b5b600061104185828601610d37565b925050602061105285828601611007565b9150509250929050565b61106581610d16565b82525050565b600082825260208201905092915050565b600061108782610d88565b611091818561106b565b93506110a1818560208601610da4565b6110aa81610dce565b840191505092915050565b6110be81610e38565b82525050565b6110cd81610e59565b82525050565b600060e0830160008301516110eb600086018261105c565b5060208301518482036020860152611103828261107c565b915050604083015161111860408601826110b5565b50606083015161112b606086018261105c565b50608083015161113e608086018261105c565b5060a083015161115160a086018261105c565b5060c083015161116460c08601826110c4565b508091505092915050565b6000602082019050818103600083015261118981846110d3565b905092915050565b7f4e487b7100000000000000000000000000000000000000000000000000000000600052602260045260246000fd5b600060028204905060018216806111d857607f821691505b6020821081036111eb576111ea611191565b5b50919050565b7f43616d706169676e20646f6573206e6f74206578697374000000000000000000600082015250565b6000611227601783610d93565b9150611232826111f1565b602082019050919050565b600060208201905081810360008301526112568161121a565b9050919050565b7f4f6e6c792063616d706169676e2063726561746f722063616e2063616c6c207460008201527f6869730000000000000000000000000000000000000000000000000000000000602082015250565b60006112b9602383610d93565b91506112c48261125d565b604082019050919050565b600060208201905081810360008301526112e8816112ac565b9050919050565b7f46756e64696e6720676f616c206e6f7420796574207265616368656400000000600082015250565b6000611325601c83610d93565b9150611330826112ef565b602082019050919050565b6000602082019050818103600083015261135481611318565b9050919050565b7f46756e647320616c72656164792077697468647261776e000000000000000000600082015250565b6000611391601783610d93565b915061139c8261135b565b602082019050919050565b600060208201905081810360008301526113c081611384565b9050919050565b600081905092915050565b50565b60006113e26000836113c7565b91506113ed826113d2565b600082019050919050565b6000611403826113d5565b9150819050919050565b7f5472616e73666572206661696c65640000000000000000000000000000000000600082015250565b6000611443600f83610d93565b915061144e8261140d565b602082019050919050565b6000602082019050818103600083015261147281611436565b9050919050565b7f476f616c206d7573742062652067726561746572207468616e207a65726f0000600082015250565b60006114af601e83610d93565b91506114ba82611479565b602082019050919050565b600060208201905081810360008301526114de816114a2565b9050919050565b7f446561646c696e65206d75737420626520696e20746865206675747572650000600082015250565b600061151b601e83610d93565b9150611526826114e5565b602082019050919050565b6000602082019050818103600083015261154a8161150e565b9050919050565b7f4e487b7100000000000000000000000000000000000000000000000000000000600052601160045260246000fd5b600061158b82610d16565b91507fffffffffffffffffffffffffffffffffffffffffffffffffffffffffffffffff82036115bd576115bc611551565b5b600182019050919050565b7f4e487b7100000000000000000000000000000000000000000000000000000000600052604160045260246000fd5b60008190508160005260206000209050919050565b60006020601f8301049050919050565b600082821b905092915050565b6000600883026116597fffffffffffffffffffffffffffffffffffffffffffffffffffffffffffffffff8261161c565b611663868361161c565b95508019841693508086168417925050509392505050565b6000819050919050565b60006116a061169b61169684610d16565b61167b565b610d16565b9050919050565b6000819050919050565b6116ba83611685565b6116ce6116c6826116a7565b848454611629565b825550505050565b600090565b6116e36116d6565b6116ee8184846116b1565b505050565b5b81811015611712576117076000826116db565b6001810190506116f4565b5050565b601f82111561175757611728816115f7565b6117318461160c565b81016020851015611740578190505b61175461174c8561160c565b8301826116f3565b50505b505050565b600082821c905092915050565b600061177a6000198460080261175c565b1980831691505092915050565b60006117938383611769565b9150826002028217905092915050565b6117ac82610d88565b67ffffffffffffffff8111156117c5576117c46115c8565b5b6117cf82546111c0565b6117da828285611716565b600060209050601f83116001811461180d57600084156117fb578287015190505b6118058582611787565b86555061186d565b601f19841661181b866115f7565b60005b828110156118435784890151825560018201915060208501945060208101905061181e565b86831015611860578489015161185c601f891682611769565b8355505b6001600288020188555050505b505050505050565b82818337600083830152505050565b60006118908385610d93565b935061189d838584611875565b6118a683610dce565b840190509392505050565b600060608201905081810360008301526118cc818688611884565b90506118db6020830185610d79565b6118e86040830184610d79565b95945050505050565b7f43616d706169676e20697320636c6f7365640000000000000000000000000000600082015250565b6000611927601283610d93565b9150611932826118f1565b602082019050919050565b600060208201905081810360008301526119568161191a565b9050919050565b7f43616d706169676e20646561646c696e65206861732070617373656400000000600082015250565b6000611993601c83610d93565b915061199e8261195d565b602082019050919050565b600060208201905081810360008301526119c281611986565b9050919050565b7f436f6e747269627574696f6e206d75737420626520677265617465722074686160008201527f6e207a65726f0000000000000000000000000000000000000000000000000000602082015250565b6000611a25602683610d93565b9150611a30826119c9565b604082019050919050565b60006020820190508181036000830152611a5481611a18565b9050919050565b6000611a6682610d16565b9150611a7183610d16565b9250828201905080821115611a8957611a88611551565b5b9291505056fea264697066735822122017feb4040f2d1dbf8c3a415f90de442a9446a3cc69867c385cfd5a7b53dec30764736f6c63430008140033",
  "linkReferences": {},
  "deployedLinkReferences": {}
}